:1000000085EF10F00000000000EF00F0000000009D
:0A0010000000000000000000F3D71C
:0E001C000001FFB102D08B9801D08B8812003A
:0E002A000001FFB102D08B9601D08B86120030
:0E0038000001FFB102D08D9601D08D8612001E
:0E0046000001FFB102D0899401D0898412001C
:0E0054000001FFB102D08B9C01D08B8C1200FA
:0E0062000001FFB102D08B9401D08B841200FC
:0E0070000001FFB102D08B9A01D08B8A1200E2
:0E007E000001FFB102D08B9E01D08B8E1200CC
:0E008C000001FFB102D08A9201D08A821200D8
:0E009A000001FFB102D08D9401D08D841200C0
:0E00A8000001FFB102D08F9201D08F821200B2
:0E00B6000001FFB102D08F9401D08F841200A0
:0E00C4000001FFB102D08B9801D08B88120092
:0E00D2000001FFB102D08B9601D08B86120088
:0E00E0000001FFB102D08A9401D08A84120080
:0E00EE000001FFB102D08B9801D08B88120068
:0E00FC000001FFB102D08B9601D08B8612005E
:0E010A000001FFB102D08F9001D08F80120053
:0E0118000001FFB102D08B9A01D08B8A120039
:0E0126000001FFB102D08B9801D08B8812002F
:0E0134000001FFB102D08B9601D08B86120025
:0E0142000001FFB102D08B9201D08B8212001F
:0E0150000001FFB102D08B9A01D08B8A120001
:0E015E000001FFB102D08D9001D08D80120003
:10016C000F0121B302D00000FBD7FFC01CFF12000F
:0E017C00ACB202D00000FCD7FFC0ADFF1200F5
:0E018A000001FFB102D08B9001D08B801200DB
:0E0198000001FFB102D0899001D089801200D1
:0E01A6000001FFB102D08A9001D08A801200C1
:0E01B4000001FFB102D08D9201D08D821200A9
:0E01C2000001FFB102D0899801D08988120097
:0E01D0000001FFB102D08B9801D08B88120085
:0E01DE000001FFB102D08B9601D08B8612007B
:0E01EC000001FFB102D0899201D08982120079
:0E01FA000001FFB102D08B9C01D08B8C120053
:0E0208000001FFB102D08B9E01D08B8E120040
:0E0216000001FFB102D08B9801D08B8812003E
:0E0224000001FFB102D08B9601D08B86120034
:1002320068B409D01F0E6614016E0150000A03E172
:0A024200010E006E01D0006A1200E8
:10024C00F250026EF29E0500FF6A0150FE6E0050E5
:08025C00FD6E02BEF28E1200DD
:10026400C7B409D01F0EC514016E0150000A03E182
:0A027400010E006E01D0006A1200B6
:0A027E00000EA4BA010E006E12007B
:0A028800000E82B0010E006E12009D
:100292001DCF01F00F0122A302D02299228901C0B1
:0402A20000F0120056
:0A02A600000E84B0010E006E12007D
:0A02B000000E80B0010E006E120077
:0C02BA00000E0F0121B3010E006E1200B7
:1002C600AECF01F0ABA202D0AB98AB8801C000F074
:0202D600120014
:0A02D800000E82B6010E006E120047
:0A02E200000E82BA010E006E120039
:0A02EC00000EACB2010E006E12000D
:0A02F600000E82B8010E006E120027
:0A030000000E9EBA010E006E1200FE
:0A030A00000E82B8010E006E120012
:0A031400000E82B6010E006E12000A
:0A031E00000E82BC010E006E1200FA
:0A032800000E84B2010E006E1200F8
:0A033200000E80B8010E006E1200EC
:0A033C00000E80B2010E006E1200E8
:0A034600000E82BA010E006E1200D4
:0A035000000E82B8010E006E1200CC
:0A035A00000E82B6010E006E1200C4
:0A036400000E82BE010E006E1200B2
:0A036E00000E81B0010E006E1200B7
:0A037800000E82B2010E006E1200AA
:0A038200000E82B4010E006E12009E
:0A038C00000E82B8010E006E120090
:1003960015C001F116C002F117C003F118C004F12F
:1003A6009E96C5869EB61FD01550161017101810AB
:1003B60019E0010101510211031104110CE169C098
:1003C600E1FF6AC0E2FF030EE66E67C000F068C098
:1003D60001F039DF08D0010E0101015F000E025B5A
:1003E600035B045BDFD7C9CFFEF00001FD51000AB5
:1003F60002E1C58A01D0C59A9E96C58815C001F14D
:1004060016C002F117C003F118C004F19EB61FD042
:10041600155016101710181019E00101015102119C
:10042600031104110CE169C0E1FF6AC0E2FF030E8B
:10043600E66E67C000F068C001F005DF08D0010E67
:100446000101015F000E025B035B045BDFD7FEC0A8
:0404560000F01200A0
:10045A009E96FDC0C9FF15C001F116C002F117C072
:10046A0003F118C004F1C7A421D0155016101710B3
:10047A0018101BE0010101510211031104110EE1D0
:10048A0069C0E1FF6AC0E2FF040EE66E67C000F0D1
:10049A0068C001F0D6DE010E006E3AD0010E0101ED
:1004AA00015F000E025B035B045BDDD715C001F13F
:1004BA0016C002F117C003F118C004F19EB621D08C
:1004CA0015501610171018101BE0010101510211E6
:1004DA00031104110EE169C0E1FF6AC0E2FF040ED4
:1004EA00E66E67C000F068C001F0ABDE010E006E78
:1004FA000FD0010E0101015F000E025B035B045B7A
:10050A00DDD7C5BC02D0006A03D0C584020E006ED6
:02051A001200CD
:0A051C00000E86B4010E006E1200FE
:0A052600000E86B2010E006E1200F6
:0A053000000E82B6010E006E1200EC
:10053A0063C001F164C002F165C003F166C004F151
:10054A00A19A6686A1BA20D000016351641165118F
:10055A00661119E0010101510211031104110CE1A4
:10056A0086C0E1FF87C0E2FF030EE66E84C000F09A
:10057A0085C001F066DE08D0010E0101015F000EA0
:10058A00025B035B045BDED76ACFFEF00001FD511C
:10059A00000A02E1668A01D0669AA19A668863C057
:1005AA0001F164C002F165C003F166C004F1A1BAA9
:1005BA0020D00001635164116511661119E001012F
:1005CA0001510211031104110CE186C0E1FF87C039
:1005DA00E2FF030EE66E84C000F085C001F031DE52
:1005EA0008D0010E0101015F000E025B035B045B90
:0805FA00DED7FEC000F0120084
:1006020063C001F164C002F165C003F166C004F188
:10061200668266A220D000016351641165116611E1
:1006220019E0010101510211031104110CE186C00C
:10063200E1FF87C0E2FF060EE66E84C000F085C0CF
:1006420001F003DE08D0010E0101015F000E025B22
:08065200035B045BDED712001C
:04065A0066841200A0
:10065E0015C001F116C002F117C003F118C004F164
:10066E000001FD6BFE6BFE51120802E1FD518E087A
:10067E0008E3F1DD005201E004D00001FD4BFE2B3A
:10068E00F2D70001120EFE5D02E18F0EFD5D03E357
:10069E007B0E006E25D0C580C5A021D0155016103A
:1006AE00171018101BE00101015102110311041162
:1006BE000EE169C0E1FF6AC0E2FF050EE66E67C09B
:1006CE0000F068C001F0BBDD010E006E09D0010E16
:1006DE000101015F000E025B035B045BDDD7006A64
:0206EE001200F8
:1006F000A19AFDC06AFF63C001F164C002F165C048
:1007000003F166C004F168A422D0000163516411B2
:10071000651166111BE00101015102110311041161
:100720000EE186C0E1FF87C0E2FF040EE66E84C0E2
:1007300000F085C001F08ADD010E006E3BD0010E95
:100740000101015F000E025B035B045BDCD763C049
:1007500001F164C002F165C003F166C004F1A1BA01
:1007600022D0000163516411651166111BE0010183
:1007700001510211031104110EE186C0E1FF87C08F
:10078000E2FF040EE66E84C000F085C001F05EDD7D
:10079000010E006E0FD0010E0101015F000E025B21
:1007A000035B045BDCD766BC02D0006A03D06684BE
:0607B000020E006E1200B3
:1007B60015C001F116C002F117C003F118C004F10B
:1007C600C582C5A21FD0155016101710181019E0B3
:1007D600010101510211031104110CE169C0E1FF8D
:1007E6006AC0E2FF060EE66E67C000F068C001F060
:1007F6002ADD08D0010E0101015F000E025B035BDA
:06080600045BDFD71200C5
:04080C00C58412008D
:0A081000000E81B4010E006E12000C
:0A081A00000E82BC010E006E1200F9
:0A082400000E82B6010E006E1200F5
:0A082E00000E82B8010E006E1200E9
:1008380063C001F164C002F165C003F166C004F150
:100848000001FD6BFE6BFE51120802E1FD518E089E
:1008580008E3EBDC005201E004D00001FD4BFE2B65
:10086800F2D70001120EFE5D02E18F0EFD5D03E37B
:100878007B0E006E26D0668066A022D000016351F0
:100888006411651166111BE0010101510211031188
:1008980004110EE186C0E1FF87C0E2FF050EE66E97
:1008A80084C000F085C001F0CDDC010E006E09D0D7
:1008B800010E0101015F000E025B035B045BDCD7E4
:0408C800006A1200B0
:0A08CC00000E81B2010E006E120052
:0A08D600000E82BE010E006E12003B
:0A08E000000E80B4010E006E12003D
:0A08EA00000E82B8010E006E12002D
:0A08F400000E82BA010E006E120021
:0A08FE00000E86B0010E006E12001D
:0A090800000E84B6010E006E12000E
:0A091200000E84B4010E006E120006
:0A091C00000E82B6010E006E1200FC
:100926000001FB6BFC6BF4C0F9F0F5C0FAF0F3C004
:1009360000F00036009000809AC0E1FF9BC0E2FF05
:1009460000C0E6FF98C000F099C001F07CDC0050C2
:100956000001FB13000EFC13010EF65F000EF75BA1
:10096600F651F71115E092C0E1FF93C0E2FF010EC8
:10097600E66E90C000F091C001F065DCF9C0E1FFC1
:10098600FAC0E2FF00C0E6FF0001F94BFA2BE4D7FC
:1009960092C0E1FF93C0E2FFE66A90C000F091C00A
:1009A60001F051DCF9C0E1FFFAC0E2FF00C0E6FF4A
:1009B6000001F851000A05E188C000F089C001F085
:1009C60042DC0001F851010A05E18CC000F08DC03F
:0E09D60001F039DCFBC000F0FCC001F01200A3
:1009E400640E0001806F020E816F000E826F000E94
:1009F400836F5E0E7C6F060E7D6F000E7E6F000EA1
:100A04007F6FB60E736F070E746F000E756F000E56
:100A1400766F960E9C6F030E9D6FFD0E9E6F000EFB
:100A24009F6F5A0EAC6F040EAD6FFD0EAE6F000ECD
:100A3400AF6F0C0EB06F080EB16F000EB26F000EE8
:100A4400B36F949894968B988B9694889486C79E4B
:080A5400C79C380EC66E1200AB
:100A5C000001F36BF46B94C000F095C001F026EC30
:100A6C0001F000C0F3F0000E0001F46FF3C000F0D1
:060A7C00F4C001F01200BD
:100A82007C0E0001A86F010EA96FFF0EAA6F000E67
:100A9200AB6FC60EA46F020EA56F000EA66F000EFE
:100AA200A76F000EA06F030EA16F000EA26F000EC3
:100AB200A36FEC0EB46F020EB56F000EB66F000E90
:100AC200B76FAC8A900EAB6E948E949C9EAA03D0A4
:080AD200AECF00F0FBD71200CB
:100ADA000001FB6BFC6BF4C0F9F0F5C0FAF0F3C04F
:100AEA0000F0003600909AC0E1FF9BC0E2FF00C010
:100AFA00E6FF98C000F099C001F026EC01F0005022
:100B0A000001FB13000EFC13F6C000F0F7C001F061
:100B1A00010EF65F000EF75B0050011018E09AC054
:100B2A00E1FF9BC0E2FFF9C0E9FFFAC0EAFFEECF9E
:100B3A00E6FF98C000F099C001F026EC01F00050E1
:100B4A000001FB13000EFC13F94BFA2BDDD7F85109
:100B5A00000A06E188C000F089C001F026EC01F025
:100B6A000001F851010A06E18CC000F08DC001F0C5
:0E0B7A0026EC01F0FBC000F0FCC001F0120000
:100B88000B6A0A6A096A086A0E6A0334083604504E
:100B9800085E0550D8A0053C095E0650D8A0063C62
:100BA8000A5E0750D8A0073C0B5EE86AD8A0010E81
:100BB8000E5E0336070E0C6E0334083609360A3605
:100BC8000B360E36045003A012D0085E0550D8A08C
:100BD800053C095E0650D8A0063C0A5E0750D8A01E
:100BE800073C0B5EE86AD8A0010E0E5E11D00826FD
:100BF8000550D8B0053C09260650D8B0063C0A2650
:100C08000750D8B0073C0B26E86AD8B0010E0E266C
:100C180003360C2ED1D70234083609360A360B367D
:100C28000E36045003A012D0085E0550D8A0053C2B
:100C3800095E0650D8A0063C0A5E0750D8A0073CBB
:100C48000B5EE86AD8A0010E0E5E11D0082605508A
:100C5800D8B0053C09260650D8B0063C0A260750ED
:100C6800D8B0073C0B26E86AD8B0010E0E2602362B
:100C7800070E0C6E0234083609360A360B360E3665
:100C8800045002A012D0085E0550D8A0053C095EA9
:100C98000650D8A0063C0A5E0750D8A0073C0B5E59
:100CA800E86AD8A0010E0E5E11D008260550D8B00B
:100CB800053C09260650D8B0063C0A260750D8B08D
:100CC800073C0B26E86AD8B0010E0E2602360C2E19
:100CD800D1D70134083609360A360B360E36045099
:100CE80002A012D0085E0550D8A0053C095E065047
:100CF800D8A0063C0A5E0750D8A0073C0B5EE86AFD
:100D0800D8A0010E0E5E11D008260550D8B0053CBB
:100D180009260650D8B0063C0A260750D8B0073C2A
:100D28000B26E86AD8B0010E0E260136070E0C6EA7
:100D38000134083609360A360B360E36045001A03F
:100D480012D0085E0550D8A0053C095E0650D8A010
:100D5800063C0A5E0750D8A0073C0B5EE86AD8A09C
:100D6800010E0E5E11D008260550D8B0053C0926A4
:100D78000650D8B0063C0A260750D8B0073C0B26C8
:100D8800E86AD8B0010E0E2601360C2ED1D70034F1
:100D9800083609360A360B360E36045001A012D032
:100DA800085E0550D8A0053C095E0650D8A0063C50
:100DB8000A5E0750D8A0073C0B5EE86AD8A0010E6F
:100DC8000E5E11D008260550D8B0053C09260650FD
:100DD800D8B0063C0A260750D8B0073C0B26E86A6C
:100DE800D8B0010E0E260036070E0C6E00340836F9
:100DF80009360A360B360E36045000A012D0085EAB
:100E08000550D8A0053C095E0650D8A0063C0A5EED
:100E18000750D8A0073C0B5EE86AD8A0010E0E5E0A
:100E280011D008260550D8B0053C09260650D8B080
:100E3800063C0A260750D8B0073C0B26E86AD8B00B
:100E4800010E0E2600360C2ED1D700B00ED004505D
:100E580008260550D8B0053C09260650D8B0063CEF
:0C0E68000A260750D8B0073C0B261200E9
:100E74006C0E0001A86F010EA96FFF0EAA6F000E81
:100E8400AB6F920EA46F020EA56F000EA66F000E3C
:100E9400A76F7E0EA06F020EA16F000EA26F000E50
:100EA400A36FBA0EB46F020EB56F000EB66F000ECC
:100EB400B76F0F01218B900E226F98849892A4AA89
:0A0EC40003D01DCF00F0FBD7120091
:100ECE0021D0CF0EAF6EAC94D5DD6BD0670EAF6E6A
:100EDE00AC94D0DD66D0CF0EAF6EAC84CBDD61D0DE
:100EEE00670EAF6EAC84C6DD5CD0440EAF6EAC84C4
:100EFE00C1DD57D0220EAF6EAC84BCDD52D0060ED3
:100F0E00006E58D00001000E006EEC1908E1005082
:100F1E00EB1905E1120EEA1902E1E951C00AD1E01E
:100F2E00000E006EEC1908E10050EB1905E1250EDC
:100F3E00EA1902E1E951800AC9E0000E006EEC19CF
:100F4E0008E10050EB1905E14B0EEA1902E1E951F7
:100F5E00000AC1E0000E006EEC1908E10050EB191A
:100F6E0005E1960EEA1902E1E951000AB9E0000E18
:100F7E00006EEC1908E10050EB1905E1E10EEA19DB
:100F8E0002E1E951000AB1E0EC51000A08E1EB512F
:100F9E00010A05E1EA51C20A02E1E951000AAAE09A
:100FAE00AED77C0E786F010E796FFF0E7A6F000E42
:060FBE007B6F006A1200C7
:100FC40038D00F0120870D0E1F6F040E1E6F218570
:100FD4004FDF7ED00F012087060E1F6F820E1E6F1B
:100FE400218546DF75D00F012087030E1F6F400E49
:100FF4001E6F21853DDF6CD00F012087010E1F6F0E
:10100400A00E1E6F218534DF63D00F012087010EEF
:101014001F6F150E1E6F21852BDF5AD00F012087FD
:101024001F6B8A0E1E6F218523DF52D0060E006EC1
:1010340059D0000E006E0001EC1908E10050EB19C4
:1010440005E1120EEA1902E1E951C00ABAE0000E04
:10105400006EEC1908E10050EB1905E1250EEA19C0
:1010640002E1E951800AB6E0000E006EEC1908E1D5
:101074000050EB1905E14B0EEA1902E1E951000AAF
:10108400B2E0000E006EEC1908E10050EB1905E126
:10109400960EEA1902E1E951000AAEE0000E006E74
:1010A400EC1908E10050EB1905E1E10EEA1902E13F
:1010B400E951000AAAE0EC51000A08E1EB51010AE7
:1010C40005E1EA51C20A02E1E951000AA7E0AED7FC
:1010D40000016C0E786F010E796FFF0E7A6F000EAF
:0610E4007B6F006A1200A0
:1010EA0021D0CF0EAF6EAC94C7DC6BD0670EAF6E5B
:1010FA00AC94C2DC66D0CF0EAF6EAC84BDDC61D0DE
:10110A00670EAF6EAC84B8DC5CD0440EAF6EAC84B4
:10111A00B3DC57D0220EAF6EAC84AEDC52D0060ED2
:10112A00006E58D00001000E006EEC1908E1005064
:10113A00EB1905E1120EEA1902E1E951C00AD1E000
:10114A00000E006EEC1908E10050EB1905E1250EBE
:10115A00EA1902E1E951800AC9E0000E006EEC19B1
:10116A0008E10050EB1905E14B0EEA1902E1E951D9
:10117A00000AC1E0000E006EEC1908E10050EB19FC
:10118A0005E1960EEA1902E1E951000AB9E0000EFA
:10119A00006EEC1908E10050EB1905E1E10EEA19BD
:1011AA0002E1E951000AB1E0EC51000A08E1EB5111
:1011BA00010A05E1EA51C20A02E1E951000AAAE07C
:1011CA00AED77C0E786F010E796FFF0E7A6F000E24
:0611DA007B6F006A1200A9
:1011E0005DD00001EAB102D0929401D092840F0147
:1011F00025957AD00001EAB102D0969601D0968664
:1012000073D00001EAB102D0969401D096846CD0DC
:101210000001EAB102D0949601D0948665D0000115
:10122000EAB102D0949801D094885ED00001EAB16E
:1012300002D0949A01D0948A57D00001EAB102D02A
:10124000989001D0988050D00001EAB102D09394D8
:1012500001D0938449D00001EAB102D0989401D022
:1012600098840F01239540D00001EAB102D09892F2
:1012700001D098820F01239337D00001EAB102D048
:10128000949601D0948630D00001EAB102D09498AF
:1012900001D0948829D0010E006E28D00001E951B8
:1012A000000A9FE0E951010AA5E0E951020AA9E01C
:1012B000E951030AADE0E951040AB1E0E951050A38
:1012C000B5E0E951060AB9E0E951070ABDE0E95184
:1012D000080AC1E0E951090AC7E0E9510A0ACDE06C
:0E12E000E9510B0AD1E0D7D7000E006E1200C4
:1012EE0059D00001EAB102D0929201D092820F0140
:1012FE00259376D00001EAB102D0929801D092885F
:10130E006FD00001EAB102D0969201D0968268D0D9
:10131E000001EAB102D0949601D0948661D000010A
:10132E00EAB102D0949801D094885AD00001EAB163
:10133E0002D0949A01D0948A53D00001EAB102D01F
:10134E00949401D094844CD00001EAB102D09392CF
:10135E0001D0938245D00001EAB102D0949E01D013
:10136E00948E3ED00001EAB102D0949C01D0948CB0
:10137E0037D00001EAB102D0949601D0948630D0D5
:10138E000001EAB102D0949801D0948829D0010EC0
:10139E00006E28D00001E951000AA3E0E951010ACC
:1013AE00A9E0E951020AADE0E951030AB1E0E951C1
:1013BE00040AB5E0E951050AB9E0E951060ABDE0B3
:1013CE00E951070AC1E0E951080AC5E0E951090AE5
:1013DE00C9E0E9510A0ACDE0E9510B0AD1E0D7D7AD
:0613EE00000E006E12006B
:1013F40059D00001EAB102D0929001D092800F013D
:10140400259176D00001EAB102D0949001D0948065
:101414006FD00001EAB102D0969001D0968068D0D6
:101424000001EAB102D0949601D0948661D0000103
:10143400EAB102D0949801D094885AD00001EAB15C
:1014440002D0949A01D0948A53D00001EAB102D018
:10145400949201D094824CD00001EAB102D09390CE
:1014640001D0938045D00001EAB102D0949E01D00E
:10147400948E3ED00001EAB102D0949C01D0948CA9
:1014840037D00001EAB102D0949601D0948630D0CE
:101494000001EAB102D0949801D0948829D0010EB9
:1014A400006E28D00001E951000AA3E0E951010AC5
:1014B400A9E0E951020AADE0E951030AB1E0E951BA
:1014C400040AB5E0E951050AB9E0E951060ABDE0AC
:1014D400E951070AC1E0E951080AC5E0E951090ADE
:1014E400C9E0E9510A0ACDE0E9510B0AD1E0D7D7A6
:0614F400000E006E120064
:1014FA00E9C0ECF0EAC0EDF0EBC0EEF00DD0A00EC2
:10150A00C86EF2EC04F045D0280EC86EF2EC04F076
:10151A0040D0040E006E3FD0ECC0F6FFEDC0F7FFDE
:10152A00EEC0F8FF0900F5CF01F00900F5CF02F08F
:10153A000900F5CF03F00900F5CF04F00450000AC2
:10154A0008E10350010A05E10250860A02E101504E
:10155A00A00AD5E0ECC0F6FFEDC0F7FFEEC0F8FF39
:10156A000900F5CF01F00900F5CF02F00900F5CF27
:10157A0003F00900F5CF04F00450000A08E1035013
:10158A00060A05E102501A0A02E10150800ABCE08B
:08159A00C0D7000E006E120024
:1015A20027D0CF0EAF6EAC9441EC05F070D0670E31
:1015B200AF6EAC9441EC05F06AD0CF0EAF6EAC8446
:1015C20041EC05F064D0670EAF6EAC8441EC05F0DF
:1015D2005ED0440EAF6EAC8441EC05F058D0220EC2
:1015E200AF6EAC8441EC05F052D0060E006E58D0BE
:1015F2000001000E006EEC1908E10050EB1905E144
:10160200120EEA1902E1E951C00ACBE0000E006EA7
:10161200EC1908E10050EB1905E1250EEA1902E187
:10162200E951800AC4E0000E006EEC1908E1005096
:10163200EB1905E14B0EEA1902E1E951000ABDE09E
:10164200000E006EEC1908E10050EB1905E1960E50
:10165200EA1902E1E951000AB6E0000E006EEC1947
:1016620008E10050EB1905E1E10EEA1902E1E95146
:10167200000AAFE0EC51000A08E1EB51010A05E172
:10168200EA51C20A02E1E951000AA9E0AED77C0E92
:10169200786F010E796FFF0E7A6F000E7B6F006A12
:0216A200120034
:1016A400E9C0ECF0EAC0EDF0EBC0EEF00DD0A00E16
:1016B400C86EF2EC04F045D0280EC86EF2EC04F0CB
:1016C40040D0040E006E3FD0ECC0F6FFEDC0F7FF33
:1016D400EEC0F8FF0900F5CF01F00900F5CF02F0E4
:1016E4000900F5CF03F00900F5CF04F00450000A17
:1016F40008E10350010A05E10250860A02E10150A3
:10170400A00AD5E0ECC0F6FFEDC0F7FFEEC0F8FF8D
:101714000900F5CF01F00900F5CF02F00900F5CF7B
:1017240003F00900F5CF04F00450000A08E1035067
:10173400060A05E102501A0A02E10150800ABCE0DF
:08174400C0D7000E006E120078
:10174C00E9C0ECF0EAC0EDF0EBC0EEF00DD0A00E6D
:10175C00C86EF2EC04F045D0280EC86EF2EC04F022
:10176C0040D0040E006E3FD0ECC0F6FFEDC0F7FF8A
:10177C00EEC0F8FF0900F5CF01F00900F5CF02F03B
:10178C000900F5CF03F00900F5CF04F00450000A6E
:10179C0008E10350010A05E10250860A02E10150FA
:1017AC00A00AD5E0ECC0F6FFEDC0F7FFEEC0F8FFE5
:1017BC000900F5CF01F00900F5CF02F00900F5CFD3
:1017CC0003F00900F5CF04F00450000A08E10350BF
:1017DC00060A05E102501A0A02E10150800ABCE037
:0817EC00C0D7000E006E1200D0
:1017F4000001EF6BF06B000EF05D02E10A0EEF5D8D
:101804000BE2EF51ED25E16EF051EE21E26E200E78
:10181400E66EEF4BF02BEFD7EF51ED25E16EF05173
:10182400EE21E26EE66A010EEF5F000EF05BEF510F
:10183400ED25F16FF051EE21F26F0A0E046E000EE9
:10184400056E066E076EE9C000F0EAC001F0EBC059
:1018540002F0ECC003F0C4EC05F008C000F009C0CD
:1018640001F00AC002F00BC003F0300E0026F1C0F4
:10187400E1FFF2C0E2FF00C0E6FF0A0E046E000EB4
:10188400056E066E076EE9C000F0EAC001F0EBC019
:1018940002F0ECC003F0C4EC05F000C0E9F001C0B4
:1018A400EAF002C0EBF003C0ECF0000E046E031883
:1018B40008E10450021805E10450011802E1005047
:1018C400000A01E105D0010EEF5F000EF05BAFD717
:0218D400120000
:1018D600E9C0EBF0EAC0ECF02EEC05F077C0F3F0CF
:1018E600EB0EF46F000EF56F020EF66F000EF76F3B
:0818F600F86B6DEC05F0120027
:1018FE00E9C0EAF0E9C0EBF02EEC05F077C0F3F0AA
:10190E00EA0EF46F000EF56F020EF66F000EF76F13
:10191E00010EF86F6DEC05F077C0F3F0EA0E0001E2
:10192E00F46F000EF56F020EF66F000EF76FF86B88
:10193E0093EC04F0EAC0ECF0000E0001ED6FECC089
:10194E0001F0006A00C0ECF001C0EDF0EB510012A6
:0E195E00000E011200C0ECF001C0EDF012000E
:10196C007AC0E1FF7BC0E2FFE9C0E9FFEAC0EAFF11
:10197C00EECFE6FF78C000F079C001F026EC01F064
:04198C00006A1200DB
:10199000E9C0F6FFEAC0F7FFEBC0F8FF0900F5CF9A
:1019A00094F00900F5CF95F00900F5CF96F0090005
:1019B000F5CF97F0040E0001E925F66E000EEA213E
:1019C000F76E000EEB21F86E0900F5CF88F00900E4
:1019D000F5CF89F00900F5CF8AF00900F5CF8BF03B
:1019E000080EE925F66E000EEA21F76E000EEB21D7
:1019F000F86E0900F5CF8CF00900F5CF8DF00900E5
:101A0000F5CF8EF00900F5CF8FF00C0EE925F66EBC
:101A1000000EEA21F76E000EEB21F86E0900F5CFFB
:101A200098F00900F5CF99F00900F5CF9AF0090078
:101A3000F5CF9BF0100EE925F66E000EEA21F76E49
:101A4000000EEB21F86E0900F5CF90F00900F5CFFC
:101A500091F00900F5CF92F00900F5CF93F0120054
:101A6000090E0B6E1E0E0C6EE40E0D6E0D2EFED7C3
:0C1A70000C2EFCD70B2EFAD70000120041
:101A7C00300E0001E925006E000EEA21016E000E09
:101A8C00EB21026E040E0024F66E000E0120F76EA0
:101A9C00000E0220F86E0900F5CF6BF00900F5CFAF
:101AAC006CF00900F5CF6DF00900F5CF6EF0E9C0D0
:101ABC00F6FFEAC0F7FFEBC0F8FF0900F5CF6FF0B7
:101ACC000900F5CF70F00900F5CF71F00900F5CFE2
:041ADC0072F0120092
:101AE00017D0DCC0E9F0DDC0EAF084DC1CD0DCC03B
:101AF000E9F0DDC0EAF077EC09F015D0DCC0E9F0E0
:101B0000DDC0EAF0F0EC08F00ED0010E006E0BD054
:101B10000001DB51000AE5E0DB51010AE8E0DB519E
:081B2000020AECE0F2D712000A
:101B2800DBC0DCF02EEC05F077C0F3F0DC0EF46FD0
:101B3800000EF56F010EF66F000EF76F010EF86FCD
:101B48006DEC05F077C0F3F0DC0E0001F46F000EC9
:101B5800F56F010EF66F000EF76FF86B93EC04F05B
:061B6800DCC000F01200D9
:101B6E00DBC0DEF0DCC0DFF00D0E0001E06F0A0E10
:101B7E00E16F35D0DEC0E9F0DFC0EAF0F0DE3AD03A
:101B8E00DEC0E9FFDFC0EAFFEE5209E0DEC0E9F099
:101B9E00DFC0EAF0E4DE0001DE4BDF2BF1D72AD006
:101BAE00DEC0E9FFDFC0EAFFEE5209E0DEC0E9F079
:101BBE00DFC0EAF0D4DE0001DE4BDF2BF1D70001EF
:101BCE00E00EE96F000EEA6FCADEE10E0001E96F6A
:101BDE00000EEA6FC4DE0ED0060E006E0CD00001B1
:101BEE00DD51000AC7E0DD51010ACAE0DD51020AEB
:081BFE00D7E0F2D7006A1200E3
:101C06001BD0DCC0E9F0DDC0EAF0DEC0EBF072DC30
:101C16001ED0DCC0E9F0DDC0EAF0DEC0EBF093DDFB
:101C260016D0DCC0E9F0DDC0EAF0DEC0EBF037DD4F
:101C36000ED0010E006E0BD00001DB51000AE1E070
:101C4600DB51010AE6E0DB51020AEBE0F2D71200B3
:101C56000001E36BE46BDBC0E5F0DCC0E6F0DDC061
:101C6600E7F0DEC0E8F0800EDE19006E800E005C44
:101C760008E1000EDD5D05E1000EDC5D02E1000E0F
:101C8600DB5D10E2010EE36F000EE46FE56BE66BC1
:101C9600E76BE86BDB51E55FDC51E65BDD51E75B4B
:101CA600DE51E85BE5C0E9F0E6C0EAF0E7C0EBF03C
:101CB600E8C0ECF0DFC0EDF0E0C0EEF098DD0B0E12
:101CC600E16F000EE26F000E006EE251005C02E171
:101CD600E151000819E2E151DF25E16EE251E02110
:101CE600E26E010EE15D006E000EE259016E0050DB
:101CF600DF25E96E0150E021EA6EEECFE6FF010E28
:101D0600E15F000EE25BDFD7DFC0E1FFE0C0E2FF8C
:101D1600200EE66EE351E4111AE0E16BE26BE1514D
:101D2600DF25E96EE251E021EA6EEE50200A03E17A
:101D3600E14BE22BF4D7010EE15F000EE25BE151CD
:101D4600DF25E16EE251E021E26E2D0EE66E120015
:101D5600A00E0001E96F080EEA6FBADD070E00015A
:101D6600E96F1F0EEA6FB4DD060E0001E96F180E6B
:101D7600EA6FAEDD080E0001E96F030EEA6FA8DD1B
:101D8600110E0001E96F030EEA6FA2DD750E000168
:101D9600E96F010EEA6F9CDD770E0001E96F100E08
:101DA600EA6F96DD780E0001E96FEA6B91DDA00E11
:101DB6000001E96F010EEA6F8BDD4FDE4EDEA00EED
:101DC6000001E96F060EEA6F83DD47DE46DE45DE7B
:101DD600040E0001E96F030EEA6F7ADD3EDE1200A3
:101DE600E1C077F0DEC0E9F0DFC0EAF0E0C0EBF07A
:101DF600CCDDDBC0E9F0DCC0EAF0DDC0EBF03BDEB9
:021E06001200C8
:101E08000001DB6BDC6B870EE96F75DD00C0DDF070
:101E18004ED0010EDB6F000EDC6F77D0020EDB6F49
:101E2800000EDC6F72D00C0EDB6F000EDC6F6DD015
:101E3800030EDB6F000EDC6F68D0170EDB6F000E31
:101E4800DC6F63D07B0EDB6F000EDC6F5ED0040EA0
:101E5800DB6F000EDC6F59D0220EDB6F000EDC6FDB
:101E680054D0EA0EDB6F000EDC6F4FD0D20EDB6F62
:101E7800040EDC6F4AD0050EDB6F000EDC6F45D018
:101E88002D0EDB6F000EDC6F40D0590EDB6F010E9C
:101E9800DC6F3BD0290EDB6F090EDC6F36D0390EB4
:101EA800DB6F300EDC6F31D0DB6BDC6B2ED0DD519D
:101EB800010AAFE0DD51020AB1E0DD51030AB3E0E7
:101EC800DD51040AB5E0DD51060AB7E0DD51070A25
:101ED800B9E0DD51080ABBE0DD510C0ABDE0DD5177
:101EE8000E0ABFE0DD510F0AC1E0DD51100AC3E060
:101EF800DD51180AC5E0DD511C0AC7E0DD511E0A94
:101F0800C9E0DD511F0ACBE0CFD7DBC000F0DCC051
:041F180001F01200C2
:101F1C002FD0DCC0E9F0DDC0EAF0DEC0EBF0DFC0B2
:101F2C00ECF0D1EC0AF032D0DCC0E9F0DDC0EAF024
:101F3C00DEC0EBF0DFC0ECF075EC08F027D0DCC0B5
:101F4C00E9F0DDC0EAF0DEC0EBF0DFC0ECF0E2EC73
:101F5C0007F01CD0DCC0E9F0DDC0EAF0DEC0EBF02D
:101F6C00DFC0ECF067EC07F011D0010E006E0ED064
:101F7C000001DB51000ACDE0DB51010AD5E0DB5159
:0E1F8C00020ADDE0DB51100AE5E0EFD712009B
:101F9A000001DB6BDC6BDD6B9EDD0001DB6B010E90
:101FAA00DC6F010EDD6F97DD0001DB6BDE0EDC6F8F
:101FBA00210EDD6F000EDE6F21DE010E0001DB6FE8
:101FCA00800EDC6F250EDD6F000EDE6FDF6FA1DF86
:041FDA0042DD1200D2
:101FDE000900F5CFE6FF0006FBE10106F9E112006C
:101FEE00880E0001DB6F99DD00C0B9F0870E00018D
:101FFE00E96F7EDC00C0BAF0040EE96FB8C0EAF0FB
:10200E0063DC27DD0001B951080A02E1B87121DD58
:10201E00B951100A02E1B8731CDDB951180A02E178
:10202E00B81F17DDEADE00C0BBF001C0BCF0BA512C
:10203E00000A3FE0560EDB6F000EDC6F010EDD6F07
:10204E008FDDBBC0DBF0BCC0DCF0000E0001DD6F2D
:10205E00DE6FBD0EDF6F000EE06FF6DDBD0EDB6FC7
:10206E00000EDC6F020EDD6F7BDD490E0001DB6FB3
:10207E00000EDC6F010EDD6F73DDBAC0DBF0000EFB
:10208E000001DC6FDD6FDE6FCC0EDF6F000EE06FD8
:10209E00DBDDCC0EDB6F000EDC6F020EDD6F60DD64
:1020AE00190E0001DB6F000EDC6F020EDD6F58DDC6
:0420BE00D0DC120060
:1020C200180E0001DB6F210EDC6F000EDD6FCA0EF1
:1020D200DE6F210EDF6F000EE06F000EE16F82DE19
:1020E200BEDC38DE1A0E0001DB6F000EDC6F020E62
:1020F200DD6F3CDD290E0001DB6F000EDC6F020E8E
:08210200DD6F34DDACDC1200DE
:0E210A00F1EC10F045DFD8DF6DDFFED7FFD718
:1021E20010EE15F0520E006E010E016E780EF66EB4
:0E21F200210EF76E000EF86EEFEC0FF01200EB
:102118009801FF008A01FF005E01FF003401FF0003
:102128002601FF005001FF004201FF00A601FF0049
:102138000802FF00FA01FF002402FF001602FF0058
:10214800B002000088020000A60200005A03000046
:102158005003000046030000780300006E030000EF
:10216800640300001E030000140300000A030000BB
:042178000000000063
:01217C000062
:0F217D00496E697469616C69736174696F6E0092
:10218C002D2D2D2D2D2D2D2D2D2D2D2D2D2D2D2D73
:10219C002D2D2D2D2D2D2D2D2D2D2D2D2D2D2D0090
:0D21AC00536C696465722076616C75650086
:0D21B900536C69646572206C766C2E2000FA
:0421C6000000000015
:1021CA005E0600000C080000B60700005A04FD0075
:0421DA009603FD006B
:0421DE00A0860100D6
:020000040030CA
:0E00000015137F7CF98B91FFFFC0FFE0FF40DE
:00000001FF
